:020000003C2999
:100008008A0183012000921E0D28A20A0319A30A5F
:040018009212090037
:0C001C003A30FD00FD0B10280000080029
:0C002800003023009E180130F00008009A
:1000340023009E181F2800001A28200046082300C9
:040044009A00080016
:10004800833021009D0520004508F000F035F0358B
:10005800700821009D040E209D149D1C3428312811
:100068001C08F100F0011B08F0040030F10408003E
:1000780024302000BA000030BB004530BC000030FE
:0E008800BD00F03021009E009D011D140800F7
:1000960014207008031D59280230FC000830FD00AA
:1000A600FD0B5328FC0B532800004B282000450865
:0600B600C6001A2008003C
:1000BC002000C301C401C301C40180304406F00018
:1000CC0080307002031D6C28063043020318A728E9
:1000DC0000303E05F50000303F05F600F0304005DD
:1000EC00F70000304105F8001430F4007508F000FA
:1000FC007608F1007708F2007808F3007408031909
:10010C008D28F336F20CF10CF00CFF3E8528B8303C
:10011C00700784008230713D85000008C5004B20BB
:10012C000430F00070080319A2282000BE35BF0D62
:10013C00C00DC10DFF3E99282000C30A0319C40A43
:10014C0063284208023A031DB3280D30C5004B202A
:10015C000A302000C5004B20BB2820004208013A81
:0C016C00031DBB280D30C5004B2008000F
:1001780020003F084102031DC3283E08400203181F
:10018800CC2840083E02F00041083F3BF100D2284D
:0E0198003E084002F0003F08413BF100080025
:0E01A6003C2020003E08C50024201D1008004B
:1001B4002000C201C30120004208F0004308F100FE
:1001C400C20A0319C30A70083E07840071083F3D40
:1001D40085000008F0007008C10070080319F628B3
:1001E4004108C5004B20DD2820004008023A031DC9
:1001F40003290D30C5004B200A302000C5004B20D8
:100204000B2920004008013A031D0B290D30C500BD
:040214004B20080073
:100218001A302000B0000030B1004630B200003083
:10022800B300FF30B400FF30B5000030B600003036
:10023800B700FF30A800FF30A9000030AA00003046
:10024800AB001430AC000030AD000030AE00003020
:10025800AF0023009E1690309D0021008E160E16CA
:100268002000911E3B2923001908F00034290800BA
:10027800F030210099000C1420000C1421008C147B
:1002880020008C1421000C1120000C1521008C1565
:1002980020000C1521000C1220000C1621008C12D5
:1002A80020008C1621000E1420000E1421008E143C
:1002B80020008E1421000E1520000E1521008E112D
:1002C80020008E1521000E1220000E1621008E121D
:1002D80020008E1623000C148C140E148E14220089
:1002E80011129112111591179114111012149210E4
:1002F80012169212981718139812181198111810AC
:100308001030990021001D149E171E129E161E17EC
:100318001E111E109E102200921712132100921215
:100328000B178B1722009D131D1123009F154030BA
:100338009B0003309C001E150C2122008C160C1605
:100348008E160E161530FB004B30FC00BE30FD003B
:10035800FD0BAC29FC0BAC29FB0BAC2900008C1263
:100368000C128E120E12A8302000BE008230BF0080
:100378000230C000DA202000A201A3012100921659
:100388000630FB003230FC00D930FD00FD0BCA29D5
:10039800FC0BCA29FB0BCA29921220002308043C33
:1003A800031DD8292208003C0318DE290030A200CA
:1003B8000430A300BE01D32070082000A0007108FB
:1003C800A1000130BE00D32070082000A6007108EB
:1003D800A7000430BE00D32070082000A4007108D4
:1003E800A5002008BE002108BF00C001C101C2014C
:1003F8005E202C302000C5004B2020302000C50096
:100408004B2020002208BE002308BF00C001C10104
:100418000230C2005E2020008C1D6E2A2208BE0019
:100428002308BF002008C0002108C100BC200030FC
:100438007102031D212A143070020318262A220093
:100448008C16282A22008C1220002208BE002308BD
:10045800BF002608C0002708C100BC200030710278
:10046800031D382A1430700203183D2A22000C1686
:100478003F2A22000C1220002208BE002308BF00D9
:100488003808C0003908C100BC2000307102031DC3
:100498004F2A143070020318542A22008E16562A46
:1004A80022008E1220002208BE002308BF00240864
:1004B800C0002508C100BC2000307102031D662A57
:1004C8001430700203186B2A22000E166D2A2200BF
:1004D8000E12A62A200023082102031D752A2208CD
:1004E800200203187A2A22008C167C2A22008C12F9
:1004F800200023082702031D832A22082602031846
:10050800882A22000C168A2A22000C1220002308AE
:100518003902031D912A220838020318962A22005C
:100528008E16982A22008E12200023082502031D09
:100538009F2A220824020318A42A22000E16A62A9B
:0805480022000E12BF29A72AB0
:100550005334743461347234743420346D346534FB
:10056000613473347534723469346E3467340034F2
:10057000303431343234333434343534363437343F
:1005800038343934413442344334443445344634C5
:020000040001F9
:04000E00A42F1316F2
:00000001FF
